{
  "abi": [
    {
      "inputs": [],
      "stateMutability": "nonpayable",
      "type": "constructor"
    },
    {
      "inputs": [],
      "name": "InvalidShortString",
      "type": "error"
    },
    {
      "inputs": [
        {
          "internalType": "string",
          "name": "str",
          "type": "string"
        }
      ],
      "name": "StringTooLong",
      "type": "error"
    },
    {
      "anonymous": false,
      "inputs": [],
      "name": "EIP712DomainChanged",
      "type": "event"
    },
    {
      "anonymous": false,
      "inputs": [
        {
          "indexed": true,
          "internalType": "address",
          "name": "staker",
          "type": "address"
        },
        {
          "indexed": true,
          "internalType": "address",
          "name": "collection",
          "type": "address"
        },
        {
          "indexed": true,
          "internalType": "uint256",
          "name": "tokenId",
          "type": "uint256"
        },
        {
          "indexed": false,
          "internalType": "uint256",
          "name": "timestamp",
          "type": "uint256"
        }
      ],
      "name": "Staked",
      "type": "event"
    },
    {
      "anonymous": false,
      "inputs": [
        {
          "indexed": true,
          "internalType": "address",
          "name": "staker",
          "type": "address"
        },
        {
          "indexed": true,
          "internalType": "address",
          "name": "collection",
          "type": "address"
        },
        {
          "indexed": true,
          "internalType": "uint256",
          "name": "tokenId",
          "type": "uint256"
        },
        {
          "indexed": false,
          "internalType": "uint256",
          "name": "timestamp",
          "type": "uint256"
        }
      ],
      "name": "Unstaked",
      "type": "event"
    },
    {
      "inputs": [],
      "name": "eip712Domain",
      "outputs": [
        {
          "internalType": "bytes1",
          "name": "fields",
          "type": "bytes1"
        },
        {
          "internalType": "string",
          "name": "name",
          "type": "string"
        },
        {
          "internalType": "string",
          "name": "version",
          "type": "string"
        },
        {
          "internalType": "uint256",
          "name": "chainId",
          "type": "uint256"
        },
        {
          "internalType": "address",
          "name": "verifyingContract",
          "type": "address"
        },
        {
          "internalType": "bytes32",
          "name": "salt",
          "type": "bytes32"
        },
        {
          "internalType": "uint256[]",
          "name": "extensions",
          "type": "uint256[]"
        }
      ],
      "stateMutability": "view",
      "type": "function"
    },
    {
      "inputs": [
        {
          "internalType": "address",
          "name": "contractAddress",
          "type": "address"
        },
        {
          "internalType": "uint256",
          "name": "tokenId",
          "type": "uint256"
        }
      ],
      "name": "encodeNftMerkleLeaf",
      "outputs": [
        {
          "internalType": "bytes32",
          "name": "",
          "type": "bytes32"
        }
      ],
      "stateMutability": "view",
      "type": "function"
    },
    {
      "inputs": [
        {
          "internalType": "bytes32",
          "name": "merkleRoot",
          "type": "bytes32"
        }
      ],
      "name": "getDigest",
      "outputs": [
        {
          "internalType": "bytes32",
          "name": "",
          "type": "bytes32"
        }
      ],
      "stateMutability": "view",
      "type": "function"
    },
    {
      "inputs": [
        {
          "internalType": "address",
          "name": "",
          "type": "address"
        },
        {
          "internalType": "address",
          "name": "",
          "type": "address"
        },
        {
          "internalType": "uint256",
          "name": "",
          "type": "uint256"
        },
        {
          "internalType": "bytes",
          "name": "",
          "type": "bytes"
        }
      ],
      "name": "onERC721Received",
      "outputs": [
        {
          "internalType": "bytes4",
          "name": "",
          "type": "bytes4"
        }
      ],
      "stateMutability": "nonpayable",
      "type": "function"
    },
    {
      "inputs": [
        {
          "components": [
            {
              "internalType": "address",
              "name": "collection",
              "type": "address"
            },
            {
              "internalType": "uint256",
              "name": "tokenId",
              "type": "uint256"
            },
            {
              "internalType": "bytes32[]",
              "name": "merkleProof",
              "type": "bytes32[]"
            }
          ],
          "internalType": "struct NftStaking.BatchStakeItem[]",
          "name": "items",
          "type": "tuple[]"
        },
        {
          "internalType": "bytes32",
          "name": "merkleRoot",
          "type": "bytes32"
        },
        {
          "components": [
            {
              "internalType": "uint8",
              "name": "v",
              "type": "uint8"
            },
            {
              "internalType": "bytes32",
              "name": "r",
              "type": "bytes32"
            },
            {
              "internalType": "bytes32",
              "name": "s",
              "type": "bytes32"
            }
          ],
          "internalType": "struct NftStaking.Signature",
          "name": "signature",
          "type": "tuple"
        }
      ],
      "name": "stakeNFTs",
      "outputs": [],
      "stateMutability": "nonpayable",
      "type": "function"
    },
    {
      "inputs": [
        {
          "internalType": "address",
          "name": "",
          "type": "address"
        },
        {
          "internalType": "uint256",
          "name": "",
          "type": "uint256"
        }
      ],
      "name": "stakedTokens",
      "outputs": [
        {
          "internalType": "address",
          "name": "",
          "type": "address"
        }
      ],
      "stateMutability": "view",
      "type": "function"
    },
    {
      "inputs": [
        {
          "components": [
            {
              "internalType": "address",
              "name": "collection",
              "type": "address"
            },
            {
              "internalType": "uint256",
              "name": "tokenId",
              "type": "uint256"
            }
          ],
          "internalType": "struct NftStaking.BatchUnstakeItem[]",
          "name": "items",
          "type": "tuple[]"
        }
      ],
      "name": "unstakeNFTs",
      "outputs": [],
      "stateMutability": "nonpayable",
      "type": "function"
    },
    {
      "inputs": [
        {
          "internalType": "address",
          "name": "contractAddress",
          "type": "address"
        },
        {
          "internalType": "uint256",
          "name": "tokenId",
          "type": "uint256"
        },
        {
          "internalType": "bytes32[]",
          "name": "merkleProof",
          "type": "bytes32[]"
        },
        {
          "internalType": "bytes32",
          "name": "merkleRoot",
          "type": "bytes32"
        }
      ],
      "name": "verifyItemProof",
      "outputs": [],
      "stateMutability": "view",
      "type": "function"
    },
    {
      "inputs": [
        {
          "internalType": "bytes32",
          "name": "message",
          "type": "bytes32"
        },
        {
          "components": [
            {
              "internalType": "uint8",
              "name": "v",
              "type": "uint8"
            },
            {
              "internalType": "bytes32",
              "name": "r",
              "type": "bytes32"
            },
            {
              "internalType": "bytes32",
              "name": "s",
              "type": "bytes32"
            }
          ],
          "internalType": "struct NftStaking.Signature",
          "name": "signature",
          "type": "tuple"
        }
      ],
      "name": "verifyOwnerSignature",
      "outputs": [],
      "stateMutability": "view",
      "type": "function"
    }
  ],
  "bytecode": {
    "object": "0x6101806040523480156200001257600080fd5b50604080518082018252600a8152694e66745374616b696e6760b01b602080830191909152825180840190935260018352603160f81b90830152906200005a826000620001fe565b610120526200006b816001620001fe565b61014052815160208084019190912060e052815190820120610100524660a052620000e860e051610100516040805160008051602062001af883398151915260208201529081019290925260608201524660808201523060a082015260009060c00160405160208183030381529060405280519060200120905090565b60805250503060c05260016002819055600380546001600160a01b03191633179055604080518082018252600a8152694e66745374616b696e6760b01b6020918201528151808301909252918152603160f81b910152620001f47f614dbc3109cd0683395a2af26d88f0b87cdea68af8ec101c1b4212f93f5803a87f4b81f7f7df93358abfa0e6272ea7bf4d4680de06884931efcce2cb63019a06437fc89efdaa54c0f20c7adf612882df0950f5a951637e0307cdcb4c672f298b8bc6620001ad4690565b604080516020810195909552840192909252606083015260808201523060a082015260c001604051602081830303815290604052805190602001206200023760201b60201c565b610160526200052f565b60006020835110156200021e57620002168362000267565b905062000231565b816200022b8482620003ee565b5060ff90505b92915050565b60006200023162000247620002b3565b8360405161190160f01b8152600281019290925260228201526042902090565b600080829050601f815111156200029e578260405163305a27a960e01b8152600401620002959190620004ba565b60405180910390fd5b8051620002ab826200050a565b179392505050565b600060c0516001600160a01b0316306001600160a01b0316148015620002da575060a05146145b15620002e7575060805190565b6200034460e051610100516040805160008051602062001af883398151915260208201529081019290925260608201524660808201523060a082015260009060c00160405160208183030381529060405280519060200120905090565b905090565b634e487b7160e01b600052604160045260246000fd5b600181811c908216806200037457607f821691505b6020821081036200039557634e487b7160e01b600052602260045260246000fd5b50919050565b601f821115620003e957600081815260208120601f850160051c81016020861015620003c45750805b601f850160051c820191505b81811015620003e557828155600101620003d0565b5050505b505050565b81516001600160401b038111156200040a576200040a62000349565b62000422816200041b84546200035f565b846200039b565b602080601f8311600181146200045a5760008415620004415750858301515b600019600386901b1c1916600185901b178555620003e5565b600085815260208120601f198616915b828110156200048b578886015182559484019460019091019084016200046a565b5085821015620004aa5787850151600019600388901b60f8161c191681555b5050505050600190811b01905550565b600060208083528351808285015260005b81811015620004e957858101830151858201604001528201620004cb565b506000604082860101526040601f19601f8301168501019250505092915050565b80516020808301519190811015620003955760001960209190910360031b1b16919050565b60805160a05160c05160e05161010051610120516101405161016051611566620005926000396000505060006102450152600061021b01526000610f1101526000610ee901526000610e4401526000610e6e01526000610e9801526115666000f3fe608060405234801561001057600080fd5b50600436106100935760003560e01c80639667def2116100665780639667def214610125578063dfd0e50d14610138578063e81c71271461014b578063f9613ab214610197578063ff033425146101aa57600080fd5b8063150b7a021461009857806340c55187146100d457806384b0196e146100f55780638d33aeaa14610110575b600080fd5b6100b66100a6366004611040565b630a85bd0160e11b949350505050565b6040516001600160e01b031990911681526020015b60405180910390f35b6100e76100e236600461111c565b6101bd565b6040519081526020016100cb565b6100fd61020d565b6040516100cb979695949392919061118c565b61012361011e36600461123a565b610295565b005b610123610133366004611267565b610361565b610123610146366004611328565b610688565b61017f61015936600461111c565b60056020908152600092835260408084209091529082529020546001600160a01b031681565b6040516001600160a01b0390911681526020016100cb565b6100e76101a5366004611386565b610999565b6101236101b836600461139f565b6109cc565b6000466040805160208101929092526bffffffffffffffffffffffff19606086901b1690820152605481018390526074016040516020818303038152906040528051906020012090505b92915050565b6000606080828080836102407f000000000000000000000000000000000000000000000000000000000000000083610a7a565b61026b7f00000000000000000000000000000000000000000000000000000000000000006001610a7a565b60408051600080825260208201909252600f60f81b9b939a50919850469750309650945092509050565b60006102a083610999565b905060006102c56102b46020850185611401565b839060208601356040870135610b25565b90506001600160a01b038116158015906102ec57506003546001600160a01b038281169116145b61035b5760405162461bcd60e51b815260206004820152603560248201527f496e76616c6964207369676e65723a20796f7520617265206e6f7420746865206044820152741bdddb995c881bd9881d1a194818dbdb9d1c9858dd605a1b60648201526084015b60405180910390fd5b50505050565b610369610b4d565b60005b8181101561067957336005600085858581811061038b5761038b611424565b6103a1926020604090920201908101915061143a565b6001600160a01b03166001600160a01b0316815260200190815260200160002060008585858181106103d5576103d5611424565b90506040020160200135815260200190815260200160002060009054906101000a90046001600160a01b03166001600160a01b03161461047d5760405162461bcd60e51b815260206004820152603860248201527f496e76616c696420756e7374616b6520726571756573743a207468697320746f60448201527f6b656e206973206e6f74207374616b656420627920796f7500000000000000006064820152608401610352565b82828281811061048f5761048f611424565b6104a5926020604090920201908101915061143a565b6001600160a01b03166342842e0e30338686868181106104c7576104c7611424565b6040805160e088901b6001600160e01b03191681526001600160a01b039687166004820152949095166024850152909302016020013560448201526064019050600060405180830381600087803b15801561052157600080fd5b505af1158015610535573d6000803e3d6000fd5b5050505060006005600085858581811061055157610551611424565b610567926020604090920201908101915061143a565b6001600160a01b03166001600160a01b03168152602001908152602001600020600085858581811061059b5761059b611424565b90506040020160200135815260200190815260200160002060006101000a8154816001600160a01b0302191690836001600160a01b031602179055508282828181106105e9576105e9611424565b9050604002016020013583838381811061060557610605611424565b61061b926020604090920201908101915061143a565b6001600160a01b0316336001600160a01b03167f06cc7e90b4f2b554a9614b0caa84f909f3498c820ae47c731f490c28c07f7d3b4260405161065f91815260200190565b60405180910390a48061067181611455565b91505061036c565b506106846001600255565b5050565b610690610b4d565b61069a8282610295565b60005b8381101561098e5760008585838181106106b9576106b9611424565b90506020028101906106cb919061147c565b6106d990602081019061143a565b905060008686848181106106ef576106ef611424565b9050602002810190610701919061147c565b60200135905036600088888681811061071c5761071c611424565b905060200281019061072e919061147c565b61073c90604081019061149c565b9150915061074d848484848b6109cc565b88888681811061075f5761075f611424565b9050602002810190610771919061147c565b61077f90602081019061143a565b6001600160a01b03166342842e0e33308c8c8a8181106107a1576107a1611424565b90506020028101906107b3919061147c565b6040516001600160e01b031960e086901b1681526001600160a01b039384166004820152929091166024830152602001356044820152606401600060405180830381600087803b15801561080657600080fd5b505af115801561081a573d6000803e3d6000fd5b5050505033600560008b8b8981811061083557610835611424565b9050602002810190610847919061147c565b61085590602081019061143a565b6001600160a01b03166001600160a01b0316815260200190815260200160002060008b8b8981811061088957610889611424565b905060200281019061089b919061147c565b60200135815260200190815260200160002060006101000a8154816001600160a01b0302191690836001600160a01b031602179055508888868181106108e3576108e3611424565b90506020028101906108f5919061147c565b6020013589898781811061090b5761090b611424565b905060200281019061091d919061147c565b61092b90602081019061143a565b6001600160a01b0316336001600160a01b03167f6c86f3fd5118b3aa8bb4f389a617046de0a3d3d477de1a1673d227f802f616dc4260405161096f91815260200190565b60405180910390a450505050808061098690611455565b91505061069d565b5061035b6001600255565b6000610207826040516020016109b191815260200190565b60405160208183030381529060405280519060200120610ba4565b60006109d886866101bd565b9050610a1a848480806020026020016040519081016040528093929190818152602001838360200280828437600092019190915250869250859150610bd19050565b610a725760405162461bcd60e51b8152602060048201526024808201527f54686973204e4654206973206e6f7420656c696769626c6520666f72207374616044820152636b696e6760e01b6064820152608401610352565b505050505050565b606060ff8314610a9457610a8d83610be7565b9050610207565b818054610aa0906114e6565b80601f0160208091040260200160405190810160405280929190818152602001828054610acc906114e6565b8015610b195780601f10610aee57610100808354040283529160200191610b19565b820191906000526020600020905b815481529060010190602001808311610afc57829003601f168201915b50505050509050610207565b6000806000610b3687878787610c26565b91509150610b4381610cea565b5095945050505050565b6002805403610b9e5760405162461bcd60e51b815260206004820152601f60248201527f5265656e7472616e637947756172643a207265656e7472616e742063616c6c006044820152606401610352565b60028055565b6000610207610bb1610e37565b8360405161190160f01b8152600281019290925260228201526042902090565b600082610bde8584610f67565b14949350505050565b60606000610bf483610fb4565b604080516020808252818301909252919250600091906020820181803683375050509182525060208101929092525090565b6000807f7fffffffffffffffffffffffffffffff5d576e7357a4501ddfe92f46681b20a0831115610c5d5750600090506003610ce1565b6040805160008082526020820180845289905260ff881692820192909252606081018690526080810185905260019060a0016020604051602081039080840390855afa158015610cb1573d6000803e3d6000fd5b5050604051601f1901519150506001600160a01b038116610cda57600060019250925050610ce1565b9150600090505b94509492505050565b6000816004811115610cfe57610cfe61151a565b03610d065750565b6001816004811115610d1a57610d1a61151a565b03610d675760405162461bcd60e51b815260206004820152601860248201527f45434453413a20696e76616c6964207369676e617475726500000000000000006044820152606401610352565b6002816004811115610d7b57610d7b61151a565b03610dc85760405162461bcd60e51b815260206004820152601f60248201527f45434453413a20696e76616c6964207369676e6174757265206c656e677468006044820152606401610352565b6003816004811115610ddc57610ddc61151a565b03610e345760405162461bcd60e51b815260206004820152602260248201527f45434453413a20696e76616c6964207369676e6174757265202773272076616c604482015261756560f01b6064820152608401610352565b50565b6000306001600160a01b037f000000000000000000000000000000000000000000000000000000000000000016148015610e9057507f000000000000000000000000000000000000000000000000000000000000000046145b15610eba57507f000000000000000000000000000000000000000000000000000000000000000090565b610f62604080517f8b73c3c69bb8fe3d512ecc4cf759cc79239f7b179b0ffacaa9a75d522b39400f60208201527f0000000000000000000000000000000000000000000000000000000000000000918101919091527f000000000000000000000000000000000000000000000000000000000000000060608201524660808201523060a082015260009060c00160405160208183030381529060405280519060200120905090565b905090565b600081815b8451811015610fac57610f9882868381518110610f8b57610f8b611424565b6020026020010151610fdc565b915080610fa481611455565b915050610f6c565b509392505050565b600060ff8216601f81111561020757604051632cd44ac360e21b815260040160405180910390fd5b6000818310610ff8576000828152602084905260409020611007565b60008381526020839052604090205b9392505050565b80356001600160a01b038116811461102557600080fd5b919050565b634e487b7160e01b600052604160045260246000fd5b6000806000806080858703121561105657600080fd5b61105f8561100e565b935061106d6020860161100e565b925060408501359150606085013567ffffffffffffffff8082111561109157600080fd5b818701915087601f8301126110a557600080fd5b8135818111156110b7576110b761102a565b604051601f8201601f19908116603f011681019083821181831017156110df576110df61102a565b816040528281528a60208487010111156110f857600080fd5b82602086016020830137600060208483010152809550505050505092959194509250565b6000806040838503121561112f57600080fd5b6111388361100e565b946020939093013593505050565b6000815180845260005b8181101561116c57602081850181015186830182015201611150565b506000602082860101526020601f19601f83011685010191505092915050565b60ff60f81b881681526000602060e0818401526111ac60e084018a611146565b83810360408501526111be818a611146565b606085018990526001600160a01b038816608086015260a0850187905284810360c0860152855180825283870192509083019060005b81811015611210578351835292840192918401916001016111f4565b50909c9b505050505050505050505050565b60006060828403121561123457600080fd5b50919050565b6000806080838503121561124d57600080fd5b8235915061125e8460208501611222565b90509250929050565b6000806020838503121561127a57600080fd5b823567ffffffffffffffff8082111561129257600080fd5b818501915085601f8301126112a657600080fd5b8135818111156112b557600080fd5b8660208260061b85010111156112ca57600080fd5b60209290920196919550909350505050565b60008083601f8401126112ee57600080fd5b50813567ffffffffffffffff81111561130657600080fd5b6020830191508360208260051b850101111561132157600080fd5b9250929050565b60008060008060a0858703121561133e57600080fd5b843567ffffffffffffffff81111561135557600080fd5b611361878288016112dc565b9095509350506020850135915061137b8660408701611222565b905092959194509250565b60006020828403121561139857600080fd5b5035919050565b6000806000806000608086880312156113b757600080fd5b6113c08661100e565b945060208601359350604086013567ffffffffffffffff8111156113e357600080fd5b6113ef888289016112dc565b96999598509660600135949350505050565b60006020828403121561141357600080fd5b813560ff8116811461100757600080fd5b634e487b7160e01b600052603260045260246000fd5b60006020828403121561144c57600080fd5b6110078261100e565b60006001820161147557634e487b7160e01b600052601160045260246000fd5b5060010190565b60008235605e1983360301811261149257600080fd5b9190910192915050565b6000808335601e198436030181126114b357600080fd5b83018035915067ffffffffffffffff8211156114ce57600080fd5b6020019150600581901b360382131561132157600080fd5b600181811c908216806114fa57607f821691505b60208210810361123457634e487b7160e01b600052602260045260246000fd5b634e487b7160e01b600052602160045260246000fdfea264697066735822122048fdcc0f8b8730ece0b2de68cbbd476e7af36fd0395b49808921d2457fd0ae8a64736f6c634300081300338b73c3c69bb8fe3d512ecc4cf759cc79239f7b179b0ffacaa9a75d522b39400f",
    "linkReferences": {}
  },
  "methodIdentifiers": {
    "eip712Domain()": "84b0196e",
    "encodeNftMerkleLeaf(address,uint256)": "40c55187",
    "getDigest(bytes32)": "f9613ab2",
    "onERC721Received(address,address,uint256,bytes)": "150b7a02",
    "stakeNFTs((address,uint256,bytes32[])[],bytes32,(uint8,bytes32,bytes32))": "dfd0e50d",
    "stakedTokens(address,uint256)": "e81c7127",
    "unstakeNFTs((address,uint256)[])": "9667def2",
    "verifyItemProof(address,uint256,bytes32[],bytes32)": "ff033425",
    "verifyOwnerSignature(bytes32,(uint8,bytes32,bytes32))": "8d33aeaa"
  },
  "id": 29
}