{
  "abi": [
    {
      "inputs": [
        {
          "internalType": "string",
          "name": "name",
          "type": "string"
        },
        {
          "internalType": "string",
          "name": "symbol",
          "type": "string"
        }
      ],
      "stateMutability": "nonpayable",
      "type": "constructor"
    },
    {
      "anonymous": false,
      "inputs": [
        {
          "indexed": true,
          "internalType": "address",
          "name": "owner",
          "type": "address"
        },
        {
          "indexed": true,
          "internalType": "address",
          "name": "approved",
          "type": "address"
        },
        {
          "indexed": true,
          "internalType": "uint256",
          "name": "tokenId",
          "type": "uint256"
        }
      ],
      "name": "Approval",
      "type": "event"
    },
    {
      "anonymous": false,
      "inputs": [
        {
          "indexed": true,
          "internalType": "address",
          "name": "owner",
          "type": "address"
        },
        {
          "indexed": true,
          "internalType": "address",
          "name": "operator",
          "type": "address"
        },
        {
          "indexed": false,
          "internalType": "bool",
          "name": "approved",
          "type": "bool"
        }
      ],
      "name": "ApprovalForAll",
      "type": "event"
    },
    {
      "anonymous": false,
      "inputs": [
        {
          "indexed": false,
          "internalType": "address",
          "name": "to",
          "type": "address"
        },
        {
          "indexed": false,
          "internalType": "uint256",
          "name": "tokenId",
          "type": "uint256"
        }
      ],
      "name": "Mint",
      "type": "event"
    },
    {
      "anonymous": false,
      "inputs": [
        {
          "indexed": true,
          "internalType": "address",
          "name": "from",
          "type": "address"
        },
        {
          "indexed": true,
          "internalType": "address",
          "name": "to",
          "type": "address"
        },
        {
          "indexed": true,
          "internalType": "uint256",
          "name": "tokenId",
          "type": "uint256"
        }
      ],
      "name": "Transfer",
      "type": "event"
    },
    {
      "inputs": [
        {
          "internalType": "address",
          "name": "to",
          "type": "address"
        },
        {
          "internalType": "uint256",
          "name": "tokenId",
          "type": "uint256"
        }
      ],
      "name": "approve",
      "outputs": [],
      "stateMutability": "nonpayable",
      "type": "function"
    },
    {
      "inputs": [
        {
          "internalType": "address",
          "name": "owner",
          "type": "address"
        }
      ],
      "name": "balanceOf",
      "outputs": [
        {
          "internalType": "uint256",
          "name": "",
          "type": "uint256"
        }
      ],
      "stateMutability": "view",
      "type": "function"
    },
    {
      "inputs": [],
      "name": "count",
      "outputs": [
        {
          "internalType": "uint256",
          "name": "",
          "type": "uint256"
        }
      ],
      "stateMutability": "view",
      "type": "function"
    },
    {
      "inputs": [
        {
          "internalType": "uint256",
          "name": "tokenId",
          "type": "uint256"
        }
      ],
      "name": "getApproved",
      "outputs": [
        {
          "internalType": "address",
          "name": "",
          "type": "address"
        }
      ],
      "stateMutability": "view",
      "type": "function"
    },
    {
      "inputs": [
        {
          "internalType": "address",
          "name": "owner",
          "type": "address"
        },
        {
          "internalType": "address",
          "name": "operator",
          "type": "address"
        }
      ],
      "name": "isApprovedForAll",
      "outputs": [
        {
          "internalType": "bool",
          "name": "",
          "type": "bool"
        }
      ],
      "stateMutability": "view",
      "type": "function"
    },
    {
      "inputs": [
        {
          "internalType": "address",
          "name": "to",
          "type": "address"
        },
        {
          "internalType": "uint256",
          "name": "tokenId",
          "type": "uint256"
        }
      ],
      "name": "mint",
      "outputs": [],
      "stateMutability": "payable",
      "type": "function"
    },
    {
      "inputs": [
        {
          "internalType": "address",
          "name": "to",
          "type": "address"
        }
      ],
      "name": "mintTo",
      "outputs": [
        {
          "internalType": "uint256",
          "name": "",
          "type": "uint256"
        }
      ],
      "stateMutability": "payable",
      "type": "function"
    },
    {
      "inputs": [],
      "name": "name",
      "outputs": [
        {
          "internalType": "string",
          "name": "",
          "type": "string"
        }
      ],
      "stateMutability": "view",
      "type": "function"
    },
    {
      "inputs": [
        {
          "internalType": "uint256",
          "name": "tokenId",
          "type": "uint256"
        }
      ],
      "name": "ownerOf",
      "outputs": [
        {
          "internalType": "address",
          "name": "",
          "type": "address"
        }
      ],
      "stateMutability": "view",
      "type": "function"
    },
    {
      "inputs": [
        {
          "internalType": "address",
          "name": "from",
          "type": "address"
        },
        {
          "internalType": "address",
          "name": "to",
          "type": "address"
        },
        {
          "internalType": "uint256",
          "name": "tokenId",
          "type": "uint256"
        }
      ],
      "name": "safeTransferFrom",
      "outputs": [],
      "stateMutability": "nonpayable",
      "type": "function"
    },
    {
      "inputs": [
        {
          "internalType": "address",
          "name": "from",
          "type": "address"
        },
        {
          "internalType": "address",
          "name": "to",
          "type": "address"
        },
        {
          "internalType": "uint256",
          "name": "tokenId",
          "type": "uint256"
        },
        {
          "internalType": "bytes",
          "name": "data",
          "type": "bytes"
        }
      ],
      "name": "safeTransferFrom",
      "outputs": [],
      "stateMutability": "nonpayable",
      "type": "function"
    },
    {
      "inputs": [
        {
          "internalType": "address",
          "name": "operator",
          "type": "address"
        },
        {
          "internalType": "bool",
          "name": "approved",
          "type": "bool"
        }
      ],
      "name": "setApprovalForAll",
      "outputs": [],
      "stateMutability": "nonpayable",
      "type": "function"
    },
    {
      "inputs": [
        {
          "internalType": "bytes4",
          "name": "interfaceId",
          "type": "bytes4"
        }
      ],
      "name": "supportsInterface",
      "outputs": [
        {
          "internalType": "bool",
          "name": "",
          "type": "bool"
        }
      ],
      "stateMutability": "view",
      "type": "function"
    },
    {
      "inputs": [],
      "name": "symbol",
      "outputs": [
        {
          "internalType": "string",
          "name": "",
          "type": "string"
        }
      ],
      "stateMutability": "view",
      "type": "function"
    },
    {
      "inputs": [
        {
          "internalType": "uint256",
          "name": "index",
          "type": "uint256"
        }
      ],
      "name": "tokenByIndex",
      "outputs": [
        {
          "internalType": "uint256",
          "name": "",
          "type": "uint256"
        }
      ],
      "stateMutability": "view",
      "type": "function"
    },
    {
      "inputs": [
        {
          "internalType": "address",
          "name": "owner",
          "type": "address"
        },
        {
          "internalType": "uint256",
          "name": "index",
          "type": "uint256"
        }
      ],
      "name": "tokenOfOwnerByIndex",
      "outputs": [
        {
          "internalType": "uint256",
          "name": "",
          "type": "uint256"
        }
      ],
      "stateMutability": "view",
      "type": "function"
    },
    {
      "inputs": [
        {
          "internalType": "uint256",
          "name": "tokenId",
          "type": "uint256"
        }
      ],
      "name": "tokenURI",
      "outputs": [
        {
          "internalType": "string",
          "name": "",
          "type": "string"
        }
      ],
      "stateMutability": "view",
      "type": "function"
    },
    {
      "inputs": [],
      "name": "totalSupply",
      "outputs": [
        {
          "internalType": "uint256",
          "name": "",
          "type": "uint256"
        }
      ],
      "stateMutability": "view",
      "type": "function"
    },
    {
      "inputs": [
        {
          "internalType": "address",
          "name": "from",
          "type": "address"
        },
        {
          "internalType": "address",
          "name": "to",
          "type": "address"
        },
        {
          "internalType": "uint256",
          "name": "tokenId",
          "type": "uint256"
        }
      ],
      "name": "transferFrom",
      "outputs": [],
      "stateMutability": "nonpayable",
      "type": "function"
    }
  ],
  "bytecode": {
    "object": "0x60806040523480156200001157600080fd5b5060405162001ca138038062001ca1833981016040819052620000349162000123565b818160006200004483826200021c565b5060016200005382826200021c565b5050505050620002e8565b634e487b7160e01b600052604160045260246000fd5b600082601f8301126200008657600080fd5b81516001600160401b0380821115620000a357620000a36200005e565b604051601f8301601f19908116603f01168101908282118183101715620000ce57620000ce6200005e565b81604052838152602092508683858801011115620000eb57600080fd5b600091505b838210156200010f5785820183015181830184015290820190620000f0565b600093810190920192909252949350505050565b600080604083850312156200013757600080fd5b82516001600160401b03808211156200014f57600080fd5b6200015d8683870162000074565b935060208501519150808211156200017457600080fd5b50620001838582860162000074565b9150509250929050565b600181811c90821680620001a257607f821691505b602082108103620001c357634e487b7160e01b600052602260045260246000fd5b50919050565b601f8211156200021757600081815260208120601f850160051c81016020861015620001f25750805b601f850160051c820191505b818110156200021357828155600101620001fe565b5050505b505050565b81516001600160401b038111156200023857620002386200005e565b62000250816200024984546200018d565b84620001c9565b602080601f8311600181146200028857600084156200026f5750858301515b600019600386901b1c1916600185901b17855562000213565b600085815260208120601f198616915b82811015620002b95788860151825594840194600190910190840162000298565b5085821015620002d85787850151600019600388901b60f8161c191681555b5050505050600190811b01905550565b6119a980620002f86000396000f3fe6080604052600436106101145760003560e01c806342842e0e116100a057806395d89b411161006457806395d89b41146102e9578063a22cb465146102fe578063b88d4fde1461031e578063c87b56dd1461033e578063e985e9c51461035e57600080fd5b806342842e0e146102565780634f6ccce7146102765780636352211e1461029657806370a08231146102b6578063755edd17146102d657600080fd5b8063095ea7b3116100e7578063095ea7b3146101cc57806318160ddd146101ee57806323b872dd146102035780632f745c591461022357806340c10f191461024357600080fd5b806301ffc9a71461011957806306661abd1461014e57806306fdde0314610172578063081812fc14610194575b600080fd5b34801561012557600080fd5b506101396101343660046114c7565b6103a7565b60405190151581526020015b60405180910390f35b34801561015a57600080fd5b50610164600b5481565b604051908152602001610145565b34801561017e57600080fd5b506101876103d2565b6040516101459190611534565b3480156101a057600080fd5b506101b46101af366004611547565b610464565b6040516001600160a01b039091168152602001610145565b3480156101d857600080fd5b506101ec6101e736600461157c565b61048b565b005b3480156101fa57600080fd5b50600854610164565b34801561020f57600080fd5b506101ec61021e3660046115a6565b6105a5565b34801561022f57600080fd5b5061016461023e36600461157c565b6105d6565b6101ec61025136600461157c565b61066c565b34801561026257600080fd5b506101ec6102713660046115a6565b6106bc565b34801561028257600080fd5b50610164610291366004611547565b6106d7565b3480156102a257600080fd5b506101b46102b1366004611547565b61076a565b3480156102c257600080fd5b506101646102d13660046115e2565b6107ca565b6101646102e43660046115e2565b610850565b3480156102f557600080fd5b506101876108c0565b34801561030a57600080fd5b506101ec6103193660046115fd565b6108cf565b34801561032a57600080fd5b506101ec61033936600461164f565b6108de565b34801561034a57600080fd5b50610187610359366004611547565b610916565b34801561036a57600080fd5b5061013961037936600461172b565b6001600160a01b03918216600090815260056020908152604080832093909416825291909152205460ff1690565b60006001600160e01b0319821663780e9d6360e01b14806103cc57506103cc8261098a565b92915050565b6060600080546103e19061175e565b80601f016020809104026020016040519081016040528092919081815260200182805461040d9061175e565b801561045a5780601f1061042f5761010080835404028352916020019161045a565b820191906000526020600020905b81548152906001019060200180831161043d57829003601f168201915b5050505050905090565b600061046f826109da565b506000908152600460205260409020546001600160a01b031690565b60006104968261076a565b9050806001600160a01b0316836001600160a01b0316036105085760405162461bcd60e51b815260206004820152602160248201527f4552433732313a20617070726f76616c20746f2063757272656e74206f776e656044820152603960f91b60648201526084015b60405180910390fd5b336001600160a01b038216148061052457506105248133610379565b6105965760405162461bcd60e51b815260206004820152603d60248201527f4552433732313a20617070726f76652063616c6c6572206973206e6f7420746f60448201527f6b656e206f776e6572206f7220617070726f76656420666f7220616c6c00000060648201526084016104ff565b6105a08383610a3c565b505050565b6105af3382610aaa565b6105cb5760405162461bcd60e51b81526004016104ff90611798565b6105a0838383610b29565b60006105e1836107ca565b82106106435760405162461bcd60e51b815260206004820152602b60248201527f455243373231456e756d657261626c653a206f776e657220696e646578206f7560448201526a74206f6620626f756e647360a81b60648201526084016104ff565b506001600160a01b03919091166000908152600660209081526040808320938352929052205490565b6106768282610c9a565b604080516001600160a01b0384168152602081018390527f0f6798a560793a54c3bcfe86a93cde1e73087d944c0ea20544137d4121396885910160405180910390a15050565b6105a0838383604051806020016040528060008152506108de565b60006106e260085490565b82106107455760405162461bcd60e51b815260206004820152602c60248201527f455243373231456e756d657261626c653a20676c6f62616c20696e646578206f60448201526b7574206f6620626f756e647360a01b60648201526084016104ff565b60088281548110610758576107586117e5565b90600052602060002001549050919050565b6000818152600260205260408120546001600160a01b0316806103cc5760405162461bcd60e51b8152602060048201526018602482015277115490cdcc8c4e881a5b9d985b1a59081d1bdad95b88125160421b60448201526064016104ff565b60006001600160a01b0382166108345760405162461bcd60e51b815260206004820152602960248201527f4552433732313a2061646472657373207a65726f206973206e6f7420612076616044820152683634b21037bbb732b960b91b60648201526084016104ff565b506001600160a01b031660009081526003602052604090205490565b600b80546000918261086183611811565b919050555061087282600b54610c9a565b600b54604080516001600160a01b038516815260208101929092527f0f6798a560793a54c3bcfe86a93cde1e73087d944c0ea20544137d4121396885910160405180910390a15050600b5490565b6060600180546103e19061175e565b6108da338383610cb4565b5050565b6108e83383610aaa565b6109045760405162461bcd60e51b81526004016104ff90611798565b61091084848484610d82565b50505050565b6060610921826109da565b600061093860408051602081019091526000815290565b905060008151116109585760405180602001604052806000815250610983565b8061096284610db5565b60405160200161097392919061182a565b6040516020818303038152906040525b9392505050565b60006001600160e01b031982166380ac58cd60e01b14806109bb57506001600160e01b03198216635b5e139f60e01b145b806103cc57506301ffc9a760e01b6001600160e01b03198316146103cc565b6000818152600260205260409020546001600160a01b0316610a395760405162461bcd60e51b8152602060048201526018602482015277115490cdcc8c4e881a5b9d985b1a59081d1bdad95b88125160421b60448201526064016104ff565b50565b600081815260046020526040902080546001600160a01b0319166001600160a01b0384169081179091558190610a718261076a565b6001600160a01b03167f8c5be1e5ebec7d5bd14f71427d1e84f3dd0314c0f7b2291e5b200ac8c7c3b92560405160405180910390a45050565b600080610ab68361076a565b9050806001600160a01b0316846001600160a01b03161480610afd57506001600160a01b0380821660009081526005602090815260408083209388168352929052205460ff165b80610b215750836001600160a01b0316610b1684610464565b6001600160a01b0316145b949350505050565b826001600160a01b0316610b3c8261076a565b6001600160a01b031614610b625760405162461bcd60e51b81526004016104ff90611859565b6001600160a01b038216610bc45760405162461bcd60e51b8152602060048201526024808201527f4552433732313a207472616e7366657220746f20746865207a65726f206164646044820152637265737360e01b60648201526084016104ff565b610bd18383836001610e48565b826001600160a01b0316610be48261076a565b6001600160a01b031614610c0a5760405162461bcd60e51b81526004016104ff90611859565b600081815260046020908152604080832080546001600160a01b03199081169091556001600160a01b0387811680865260038552838620805460001901905590871680865283862080546001019055868652600290945282852080549092168417909155905184937fddf252ad1be2c89b69c2b068fc378daa952ba7f163c4a11628f55a4df523b3ef91a4505050565b6108da828260405180602001604052806000815250610f7c565b816001600160a01b0316836001600160a01b031603610d155760405162461bcd60e51b815260206004820152601960248201527f4552433732313a20617070726f766520746f2063616c6c65720000000000000060448201526064016104ff565b6001600160a01b03838116600081815260056020908152604080832094871680845294825291829020805460ff191686151590811790915591519182527f17307eab39ab6107e8899845ad3d59bd9653f200f220920489ca2b5937696c31910160405180910390a3505050565b610d8d848484610b29565b610d9984848484610faf565b6109105760405162461bcd60e51b81526004016104ff9061189e565b60606000610dc2836110b0565b600101905060008167ffffffffffffffff811115610de257610de2611639565b6040519080825280601f01601f191660200182016040528015610e0c576020820181803683370190505b5090508181016020015b600019016f181899199a1a9b1b9c1cb0b131b232b360811b600a86061a8153600a8504945084610e1657509392505050565b6001811115610eb75760405162461bcd60e51b815260206004820152603560248201527f455243373231456e756d657261626c653a20636f6e7365637574697665207472604482015274185b9cd9995c9cc81b9bdd081cdd5c1c1bdc9d1959605a1b60648201526084016104ff565b816001600160a01b038516610f1357610f0e81600880546000838152600960205260408120829055600182018355919091527ff3f7a9fe364faab93b216da50a3214154f22a0a2b415b23a84c8169e8b636ee30155565b610f36565b836001600160a01b0316856001600160a01b031614610f3657610f368582611188565b6001600160a01b038416610f5257610f4d81611225565b610f75565b846001600160a01b0316846001600160a01b031614610f7557610f7584826112d4565b5050505050565b610f868383611318565b610f936000848484610faf565b6105a05760405162461bcd60e51b81526004016104ff9061189e565b60006001600160a01b0384163b156110a557604051630a85bd0160e11b81526001600160a01b0385169063150b7a0290610ff39033908990889088906004016118f0565b6020604051808303816000875af192505050801561102e575060408051601f3d908101601f1916820190925261102b9181019061192d565b60015b61108b573d80801561105c576040519150601f19603f3d011682016040523d82523d6000602084013e611061565b606091505b5080516000036110835760405162461bcd60e51b81526004016104ff9061189e565b805181602001fd5b6001600160e01b031916630a85bd0160e11b149050610b21565b506001949350505050565b60008072184f03e93ff9f4daa797ed6e38ed64bf6a1f0160401b83106110ef5772184f03e93ff9f4daa797ed6e38ed64bf6a1f0160401b830492506040015b6d04ee2d6d415b85acef8100000000831061111b576d04ee2d6d415b85acef8100000000830492506020015b662386f26fc10000831061113957662386f26fc10000830492506010015b6305f5e1008310611151576305f5e100830492506008015b612710831061116557612710830492506004015b60648310611177576064830492506002015b600a83106103cc5760010192915050565b60006001611195846107ca565b61119f919061194a565b6000838152600760205260409020549091508082146111f2576001600160a01b03841660009081526006602090815260408083208584528252808320548484528184208190558352600790915290208190555b5060009182526007602090815260408084208490556001600160a01b039094168352600681528383209183525290812055565b6008546000906112379060019061194a565b6000838152600960205260408120546008805493945090928490811061125f5761125f6117e5565b906000526020600020015490508060088381548110611280576112806117e5565b60009182526020808320909101929092558281526009909152604080822084905585825281205560088054806112b8576112b861195d565b6001900381819060005260206000200160009055905550505050565b60006112df836107ca565b6001600160a01b039093166000908152600660209081526040808320868452825280832085905593825260079052919091209190915550565b6001600160a01b03821661136e5760405162461bcd60e51b815260206004820181905260248201527f4552433732313a206d696e7420746f20746865207a65726f206164647265737360448201526064016104ff565b6000818152600260205260409020546001600160a01b0316156113d35760405162461bcd60e51b815260206004820152601c60248201527f4552433732313a20746f6b656e20616c7265616479206d696e7465640000000060448201526064016104ff565b6113e1600083836001610e48565b6000818152600260205260409020546001600160a01b0316156114465760405162461bcd60e51b815260206004820152601c60248201527f4552433732313a20746f6b656e20616c7265616479206d696e7465640000000060448201526064016104ff565b6001600160a01b038216600081815260036020908152604080832080546001019055848352600290915280822080546001600160a01b0319168417905551839291907fddf252ad1be2c89b69c2b068fc378daa952ba7f163c4a11628f55a4df523b3ef908290a45050565b6001600160e01b031981168114610a3957600080fd5b6000602082840312156114d957600080fd5b8135610983816114b1565b60005b838110156114ff5781810151838201526020016114e7565b50506000910152565b600081518084526115208160208601602086016114e4565b601f01601f19169290920160200192915050565b6020815260006109836020830184611508565b60006020828403121561155957600080fd5b5035919050565b80356001600160a01b038116811461157757600080fd5b919050565b6000806040838503121561158f57600080fd5b61159883611560565b946020939093013593505050565b6000806000606084860312156115bb57600080fd5b6115c484611560565b92506115d260208501611560565b9150604084013590509250925092565b6000602082840312156115f457600080fd5b61098382611560565b6000806040838503121561161057600080fd5b61161983611560565b91506020830135801515811461162e57600080fd5b809150509250929050565b634e487b7160e01b600052604160045260246000fd5b6000806000806080858703121561166557600080fd5b61166e85611560565b935061167c60208601611560565b925060408501359150606085013567ffffffffffffffff808211156116a057600080fd5b818701915087601f8301126116b457600080fd5b8135818111156116c6576116c6611639565b604051601f8201601f19908116603f011681019083821181831017156116ee576116ee611639565b816040528281528a602084870101111561170757600080fd5b82602086016020830137600060208483010152809550505050505092959194509250565b6000806040838503121561173e57600080fd5b61174783611560565b915061175560208401611560565b90509250929050565b600181811c9082168061177257607f821691505b60208210810361179257634e487b7160e01b600052602260045260246000fd5b50919050565b6020808252602d908201527f4552433732313a2063616c6c6572206973206e6f7420746f6b656e206f776e6560408201526c1c881bdc88185c1c1c9bdd9959609a1b606082015260800190565b634e487b7160e01b600052603260045260246000fd5b634e487b7160e01b600052601160045260246000fd5b600060018201611823576118236117fb565b5060010190565b6000835161183c8184602088016114e4565b8351908301906118508183602088016114e4565b01949350505050565b60208082526025908201527f4552433732313a207472616e736665722066726f6d20696e636f72726563742060408201526437bbb732b960d91b606082015260800190565b60208082526032908201527f4552433732313a207472616e7366657220746f206e6f6e20455243373231526560408201527131b2b4bb32b91034b6b83632b6b2b73a32b960711b606082015260800190565b6001600160a01b038581168252841660208201526040810183905260806060820181905260009061192390830184611508565b9695505050505050565b60006020828403121561193f57600080fd5b8151610983816114b1565b818103818111156103cc576103cc6117fb565b634e487b7160e01b600052603160045260246000fdfea2646970667358221220ced979e0d1dc78038c3f5c87ba9ac2734ff53e999328cc7c28820f35d139029664736f6c63430008130033",
    "linkReferences": {}
  },
  "methodIdentifiers": {
    "approve(address,uint256)": "095ea7b3",
    "balanceOf(address)": "70a08231",
    "count()": "06661abd",
    "getApproved(uint256)": "081812fc",
    "isApprovedForAll(address,address)": "e985e9c5",
    "mint(address,uint256)": "40c10f19",
    "mintTo(address)": "755edd17",
    "name()": "06fdde03",
    "ownerOf(uint256)": "6352211e",
    "safeTransferFrom(address,address,uint256)": "42842e0e",
    "safeTransferFrom(address,address,uint256,bytes)": "b88d4fde",
    "setApprovalForAll(address,bool)": "a22cb465",
    "supportsInterface(bytes4)": "01ffc9a7",
    "symbol()": "95d89b41",
    "tokenByIndex(uint256)": "4f6ccce7",
    "tokenOfOwnerByIndex(address,uint256)": "2f745c59",
    "tokenURI(uint256)": "c87b56dd",
    "totalSupply()": "18160ddd",
    "transferFrom(address,address,uint256)": "23b872dd"
  },
  "id": 30
}